{
  "contractName": "PrevUserTracker",
  "abi": [
    {
      "inputs": [],
      "payable": true,
      "stateMutability": "payable",
      "type": "constructor"
    },
    {
      "constant": false,
      "inputs": [
        {
          "internalType": "address payable",
          "name": "newAddress",
          "type": "address"
        }
      ],
      "name": "updateLastAddress",
      "outputs": [],
      "payable": false,
      "stateMutability": "nonpayable",
      "type": "function"
    },
    {
      "constant": true,
      "inputs": [],
      "name": "getLastAddress",
      "outputs": [
        {
          "internalType": "address payable",
          "name": "",
          "type": "address"
        }
      ],
      "payable": false,
      "stateMutability": "view",
      "type": "function"
    }
  ],
  "bytecode": "0x6080604052336000806101000a81548173ffffffffffffffffffffffffffffffffffffffff021916908373ffffffffffffffffffffffffffffffffffffffff16021790555061016a806100536000396000f3fe608060405234801561001057600080fd5b50600436106100365760003560e01c806371a2ee521461003b5780639e29d22614610085575b600080fd5b6100436100c9565b604051808273ffffffffffffffffffffffffffffffffffffffff1673ffffffffffffffffffffffffffffffffffffffff16815260200191505060405180910390f35b6100c76004803603602081101561009b57600080fd5b81019080803573ffffffffffffffffffffffffffffffffffffffff1690602001909291905050506100f2565b005b60008060009054906101000a900473ffffffffffffffffffffffffffffffffffffffff16905090565b806000806101000a81548173ffffffffffffffffffffffffffffffffffffffff021916908373ffffffffffffffffffffffffffffffffffffffff1602179055505056fea265627a7a72315820e6c45829b2785acd8650b766a845c05a91e670743ba1ce6f00f91e579f52dba564736f6c63430005100032",
  "source": "/*\n * This exercise has been updated to use Solidity version 0.8.5\n * See the latest Solidity updates at\n * https://solidity.readthedocs.io/en/latest/080-breaking-changes.html\n */\n// SPDX-License-Identifier: MIT\npragma solidity 0.5.16;\n\n//Ownable\n//Inheritance\n\n//Proper Use of Require, Assert and Revert\n//Using Specific Compiler Pragma\n//Use Modifiers Only for Validation\n\n/// @title A way to keep track of the previous user of this contract\n/// @author Ben Ulmer\ncontract PrevUserTracker {\n  address payable private prevAddress;\n\n  constructor() payable public {\n      prevAddress = msg.sender;\n  }\n\n  /// @notice Updates the state of the contract to reflect the latest user of the contract.\n  /// @param newAddress The newest used address\n  function updateLastAddress(address payable newAddress) public {\n    prevAddress = newAddress;\n  }\n\n  /// @notice Provides the address last used by this contract.\n  /// @return The last used address.\n  function getLastAddress() public view returns(address payable) {\n    return prevAddress;\n  }\n}\n\n/// @title Donation mechanism for previous user of the contract\n/// @author Ben Ulmer\ncontract PayItBackward is PrevUserTracker {\n  /// @notice The owner of the contract.\n  address public owner;\n  /// @notice The minimum value that can be sent.\n  uint constant minValue = 100;  \n  /// @notice The previous amount sent.\n  uint prevAmountSent = 0;\n\n  constructor() payable public {\n      owner = msg.sender;\n  }\n\n  /// @notice Emitted when money is sent to the previous user\n  /// @param accountAddress The address the amount was sent to\n  /// @param amount The amount that was sent\n  event LogSend(address accountAddress, uint amount);\n\n  modifier onlyOwner() {\n    require(msg.sender == owner, \"Only the owner is allowed to see the previous address.\");\n    _;\n  }\n\n  /// @notice Get the last user of this contract (only callable by the owner)\n  /// @return The previous address\n  function getLastUser() public onlyOwner returns (address payable) {\n    return getLastAddress();\n  }  \n\n  /// @notice Gets the previous amount sent to the previous address.\n  /// @return The previous amount sent\n  function getPreviousAmountSent() public returns (uint) {\n    return prevAmountSent;\n  }  \n\n  /// @notice Pay the previous user of this contract\n  function send() public payable {\n    // Prevent people from sending minimal amounts to set themselves up to receive next.\n    require(msg.value >= minValue);\n    address payable prev = getLastAddress();\n    prev.transfer(msg.value);\n    updateLastAddress(msg.sender);\n    prevAmountSent = msg.value;\n    emit LogSend(prev, msg.value);\n  }\n}\n",
  "sourcePath": "/Users/ben.ulmer@coinbase.com/consensys-final/blockchain-developer-bootcamp-final-project/contracts/PayItBackward.sol",
  "compiler": {
    "name": "solc",
    "version": "0.5.16+commit.9c3226ce.Emscripten.clang"
  },
  "schemaVersion": "3.4.3",
  "updatedAt": "2021-11-24T00:19:54.718Z",
  "devdoc": {
    "author": "Ben Ulmer",
    "methods": {
      "getLastAddress()": {
        "return": "The last used address."
      },
      "updateLastAddress(address)": {
        "params": {
          "newAddress": "The newest used address"
        }
      }
    },
    "title": "A way to keep track of the previous user of this contract"
  },
  "userdoc": {
    "methods": {
      "getLastAddress()": {
        "notice": "Provides the address last used by this contract."
      },
      "updateLastAddress(address)": {
        "notice": "Updates the state of the contract to reflect the latest user of the contract."
      }
    }
  }
}