{
  "contractName": "PayItBackward",
  "abi": [
    {
      "inputs": [],
      "payable": true,
      "stateMutability": "payable",
      "type": "constructor"
    },
    {
      "anonymous": false,
      "inputs": [
        {
          "indexed": false,
          "internalType": "address",
          "name": "accountAddress",
          "type": "address"
        },
        {
          "indexed": false,
          "internalType": "uint256",
          "name": "amount",
          "type": "uint256"
        }
      ],
      "name": "LogSend",
      "type": "event"
    },
    {
      "constant": true,
      "inputs": [],
      "name": "getLastAddress",
      "outputs": [
        {
          "internalType": "address payable",
          "name": "",
          "type": "address"
        }
      ],
      "payable": false,
      "stateMutability": "view",
      "type": "function"
    },
    {
      "constant": true,
      "inputs": [],
      "name": "owner",
      "outputs": [
        {
          "internalType": "address",
          "name": "",
          "type": "address"
        }
      ],
      "payable": false,
      "stateMutability": "view",
      "type": "function"
    },
    {
      "constant": false,
      "inputs": [
        {
          "internalType": "address payable",
          "name": "newAddress",
          "type": "address"
        }
      ],
      "name": "updateLastAddress",
      "outputs": [],
      "payable": false,
      "stateMutability": "nonpayable",
      "type": "function"
    },
    {
      "constant": false,
      "inputs": [],
      "name": "getLastUser",
      "outputs": [
        {
          "internalType": "address payable",
          "name": "",
          "type": "address"
        }
      ],
      "payable": false,
      "stateMutability": "nonpayable",
      "type": "function"
    },
    {
      "constant": false,
      "inputs": [],
      "name": "getPreviousAmountSent",
      "outputs": [
        {
          "internalType": "uint256",
          "name": "",
          "type": "uint256"
        }
      ],
      "payable": false,
      "stateMutability": "nonpayable",
      "type": "function"
    },
    {
      "constant": false,
      "inputs": [],
      "name": "send",
      "outputs": [],
      "payable": true,
      "stateMutability": "payable",
      "type": "function"
    }
  ],
  "bytecode": "0x60806040526000600255336000806101000a81548173ffffffffffffffffffffffffffffffffffffffff021916908373ffffffffffffffffffffffffffffffffffffffff16021790555033600160006101000a81548173ffffffffffffffffffffffffffffffffffffffff021916908373ffffffffffffffffffffffffffffffffffffffff160217905550610480806100996000396000f3fe6080604052600436106100555760003560e01c8063248b5e071461005a57806371a2ee52146100855780638da5cb5b146100dc5780639e29d22614610133578063b46300ec14610184578063efd799301461018e575b600080fd5b34801561006657600080fd5b5061006f6101e5565b6040518082815260200191505060405180910390f35b34801561009157600080fd5b5061009a6101ef565b604051808273ffffffffffffffffffffffffffffffffffffffff1673ffffffffffffffffffffffffffffffffffffffff16815260200191505060405180910390f35b3480156100e857600080fd5b506100f1610218565b604051808273ffffffffffffffffffffffffffffffffffffffff1673ffffffffffffffffffffffffffffffffffffffff16815260200191505060405180910390f35b34801561013f57600080fd5b506101826004803603602081101561015657600080fd5b81019080803573ffffffffffffffffffffffffffffffffffffffff16906020019092919050505061023e565b005b61018c610281565b005b34801561019a57600080fd5b506101a3610360565b604051808273ffffffffffffffffffffffffffffffffffffffff1673ffffffffffffffffffffffffffffffffffffffff16815260200191505060405180910390f35b6000600254905090565b60008060009054906101000a900473ffffffffffffffffffffffffffffffffffffffff16905090565b600160009054906101000a900473ffffffffffffffffffffffffffffffffffffffff1681565b806000806101000a81548173ffffffffffffffffffffffffffffffffffffffff021916908373ffffffffffffffffffffffffffffffffffffffff16021790555050565b606434101561028f57600080fd5b60006102996101ef565b90508073ffffffffffffffffffffffffffffffffffffffff166108fc349081150290604051600060405180830381858888f193505050501580156102e1573d6000803e3d6000fd5b506102eb3361023e565b346002819055507f9c14ee1f9f8e62180743f968c4cd77dd4915cc6a958827ea189628579435743d8134604051808373ffffffffffffffffffffffffffffffffffffffff1673ffffffffffffffffffffffffffffffffffffffff1681526020018281526020019250505060405180910390a150565b6000600160009054906101000a900473ffffffffffffffffffffffffffffffffffffffff1673ffffffffffffffffffffffffffffffffffffffff163373ffffffffffffffffffffffffffffffffffffffff1614610408576040517f08c379a00000000000000000000000000000000000000000000000000000000081526004018080602001828103825260368152602001806104166036913960400191505060405180910390fd5b6104106101ef565b90509056fe4f6e6c7920746865206f776e657220697320616c6c6f77656420746f20736565207468652070726576696f757320616464726573732ea265627a7a723158205028a67a68334217eb7f23e997fa1de32ac008c59d3c616602a3752ec0df09a864736f6c63430005100032",
  "source": "/*\n * This exercise has been updated to use Solidity version 0.8.5\n * See the latest Solidity updates at\n * https://solidity.readthedocs.io/en/latest/080-breaking-changes.html\n */\n// SPDX-License-Identifier: MIT\npragma solidity 0.5.16;\n\n//Ownable\n//Inheritance\n\n//Proper Use of Require, Assert and Revert\n//Using Specific Compiler Pragma\n//Use Modifiers Only for Validation\n\ncontract PrevUserTracker {\n  address payable private prevAddress;\n\n  constructor() payable public {\n      prevAddress = msg.sender;\n  }\n\n  function updateLastAddress(address payable newAddress) public {\n    prevAddress = newAddress;\n  }\n\n  function getLastAddress() public view returns(address payable) {\n    return prevAddress;\n  }\n}\n\ncontract PayItBackward is PrevUserTracker {\n  address public owner;\n  uint constant minValue = 100;  \n  uint prevAmountSent = 0;\n\n  constructor() payable public {\n      owner = msg.sender;\n  }\n\n  event LogSend(address accountAddress, uint amount);\n\n\n  modifier onlyOwner() {\n    require(msg.sender == owner, \"Only the owner is allowed to see the previous address.\");\n    _;\n  }\n\n  /// @notice Get the last user of this contract (only callable by the owner)\n  /// @return The previous address\n  function getLastUser() public onlyOwner returns (address payable) {\n    return getLastAddress();\n  }  \n\n  /// @notice Gets the previous amount sent to the previous address.\n  /// @return The previous amount sent\n  function getPreviousAmountSent() public returns (uint) {\n    return prevAmountSent;\n  }  \n\n  /// @notice Pay the previous user of this contract\n  function send() public payable {\n    // Prevent people from sending minimal amounts to set themselves up to receive next.\n    require(msg.value >= minValue);\n    address payable prev = getLastAddress();\n    prev.transfer(msg.value);\n    updateLastAddress(msg.sender);\n    prevAmountSent = msg.value;\n    emit LogSend(prev, msg.value);\n  }\n}\n",
  "sourcePath": "/Users/benulmer/consensys/blockchain-developer-bootcamp-final-project/contracts/PayItBackward.sol",
  "compiler": {
    "name": "solc",
    "version": "0.5.16+commit.9c3226ce.Emscripten.clang"
  },
  "schemaVersion": "3.4.3",
  "updatedAt": "2021-11-23T05:14:14.561Z",
  "networkType": "ethereum",
  "devdoc": {
    "methods": {
      "getLastUser()": {
        "return": "The previous address"
      },
      "getPreviousAmountSent()": {
        "return": "The previous amount sent"
      }
    }
  },
  "userdoc": {
    "methods": {
      "getLastUser()": {
        "notice": "Get the last user of this contract (only callable by the owner)"
      },
      "getPreviousAmountSent()": {
        "notice": "Gets the previous amount sent to the previous address."
      },
      "send()": {
        "notice": "Pay the previous user of this contract"
      }
    }
  }
}